:100000000C944E010C9476010C9476010C947601BC
:100010000C9476010C9476010C9476010C94760184
:100020000C9476010C9476010C9476010C94760174
:100030000C9476010C9476010C9476010C94760164
:100040000C94DD040C9476010C9476010C947601EA
:100050000C9476010C9476010C9476010C94760144
:100060000C9427050C947601000000000000005F4E
:1000700000000007000700147F147F14242A7F2A41
:10008000122313086462364955225000050300000C
:10009000001C2241000041221C0014083E081408E4
:1000A000083E0808005030000008080808080060F2
:1000B00060000020100804023E5149453E00427F86
:1000C000400042615149462141454B311814127F8D
:1000D0001027454545393C4A494930017109050316
:1000E0003649494936064949291E0036360000007E
:1000F0005636000008142241001414141414004150
:100100002214080201510906324979413E7E11113B
:10011000117E7F494949363E414141227F4141227A
:100120001C7F494949417F090909013E4149497AF2
:100130007F0808087F00417F41002040413F017F48
:10014000081422417F404040407F020C027F7F0420
:1001500008107F3E4141413E7F090909063E415159
:10016000215E7F09192946464949493101017F012C
:10017000013F4040403F1F2040201F3F4038403F4C
:100180006314081463070870080761514945430068
:100190007F41410002040810200041417F00040219
:1001A0000102044040404040000102040020545439
:1001B00054787F48444438384444442038444448C0
:1001C0007F3854545418087E0901020C5252523E92
:1001D0007F0804047800447D40002040443D007FB7
:1001E0001028440000417F40007C041804787C08FB
:1001F00004047838444444387C1414140808141453
:10020000187C7C080404084854545420043F44409B
:10021000203C4040207C1C2040201C3C4030403C86
:1002200044281028440C5050503C4464544C440022
:100230000836410000007F00000041360800080831
:100240002A1C080000000000000000080002010055
:100250000003040700000000000000000000000090
:10026000250028002B0000000000240027002A00A1
:10027000040404040404040402020202020203034C
:100280000303030301020408102040800102040854
:10029000102001020408102046068C0811241FBEFD
:1002A000CFEFD8E0DEBFCDBF26E0A6E2B1E001C0CF
:1002B0001D92A631B207E1F711E0A0E0B1E0E4E65B
:1002C000F8E102C005900D92A632B107D9F711E00E
:1002D000CDE4D1E004C02197FE010E942D0ACC3468
:1002E000D107C9F70E94CA060C94250C0C94000093
:1002F00090E0FC01EC57FD4F249180599D4FFC018B
:100300008491882399F090E0880F991FFC01EA59A5
:10031000FD4FA591B491FC01E45AFD4F8591949154
:100320008FB7F894EC91E22BEC938FBF0895E62FF2
:10033000E695E695E69590E8E99FF0011124E80F2F
:10034000F11DEB50FE4F2289677081E090E001C003
:10035000880F6A95EAF730911106332319F0822B42
:10036000828B089580958223FBCF90E0FC01E85BAF
:10037000FD4F2491FC01EC57FD4F3491FC01E059F5
:10038000FD4FE491EE23C9F0222339F0233001F12F
:10039000A8F4213019F1223029F1F0E0EE0FFF1F0F
:1003A000E45AFD4FA591B4918FB7F894EC91611187
:1003B00026C030953E233C938FBF08952730A9F087
:1003C0002830C9F0243049F7809180008F7D03C028
:1003D000809180008F7780938000DFCF84B58F7706
:1003E00084BDDBCF84B58F7DFBCF8091B0008F774C
:1003F0008093B000D2CF8091B0008F7DF9CF3E2B9B
:10040000DACF3FB7F8948091950190919601A09131
:100410009701B091980126B5A89B05C02F3F19F010
:100420000196A11DB11D3FBFBA2FA92F982F882774
:10043000BC01CD01620F711D811D911D42E0660F4F
:10044000771F881F991F4A95D1F708958F929F9221
:10045000AF92BF92CF92DF92EF92FF920E94010281
:100460004B015C018AE0C82ED12CE12CF12C0E94BA
:100470000102681979098A099B09683E7340810560
:100480009105A8F321E0C21AD108E108F10888EE2D
:10049000880E83E0981EA11CB11CC114D104E10494
:1004A000F10429F7FF90EF90DF90CF90BF90AF90CD
:1004B0009F908F9008950895089520916701260FC9
:1004C0003327331F21323105ECF42091BF01FC01A9
:1004D00090E080E0243069F082E00895A091670107
:1004E0002191AC01495B5E4FA40FB52FB11D2C9338
:1004F0000196861798F380916701680F60936701F2
:1005000080E0089581E008951092BF0181E080931A
:10051000BE011092990161E082E10E94B50161E0A3
:1005200083E10E94B501E9EBF0E080818E7F80835A
:1005300080818D7F808388E48093B80085E48093F8
:10054000BC000895CF93DF9391E0909346018823F8
:10055000B9F0C091B800D091BA008091BC008A7BFC
:100560008093BC0060E082E10E94B50160E083E11D
:100570000E94B5010E948402D093BA00C093B800D3
:10058000DF91CF910895CF92DF92EF92FF920F9378
:100590001F93CF93DF93D091E80181E0D13208F02F
:1005A0009CC0C091E7010E9401026B017C01809117
:1005B000BF0181116CC082E08093BF0181E0809314
:1005C000BE018FEF8093BD011092BC01D093BB019F
:1005D000A7ECB1E0EBE9F1E080E0D8138DC0109218
:1005E0009A0180919A01CC0FC82BC0939A018091F7
:1005F0009901813009F084C0109299010E94010292
:100600006B017C0180919A018093BB008091C101B4
:100610009091C201A091C301B091C401892B8A2B92
:100620008B2BA1F00E9401020091C1011091C20127
:100630002091C3013091C4016C197D098E099F0975
:10064000061717072807390708F442C08091BC0035
:1006500083FDD8CF85EC8093BC000E9401026B0122
:100660007C018091BF01823009F44CC08091BD01B2
:100670008F3F09F469C08091BD01803209F466C0E2
:100680008091BD01803309F463C084E026C080916D
:10069000C1019091C201A091C301B091C401892B05
:1006A0008A2B8B2B09F483CF0E9401020091C10198
:1006B0001091C2012091C3013091C4016C197D09D0
:1006C0008E099F09061717072807390708F06FCF0B
:1006D0008091C0010E94A20285E01092C601109292
:1006E000E8011092C501DF91CF911F910F91FF900A
:1006F000EF90DF90CF9008959D9191938F5F6DCF94
:1007000085EEA9CF8091C1019091C201A091C30152
:10071000B091C401892B8A2B8B2B09F4A2CF0E94A4
:1007200001020091C1011091C2012091C3013091D9
:10073000C4016C197D098E099F0906171707280740
:10074000390708F08ECFC4CF80E0C7CF82E0C5CF95
:1007500083E0C3CF0895E0918F0180918E01E81767
:1007600030F4F0E0EA5DFE4F808190E008958FEF75
:100770009FEF089590918F0180918E012FEF3FEFB1
:10078000981748F4E92FF0E0EA5DFE4F208130E051
:100790009F5F90938F01C901089580918E01909180
:1007A0008F01891B990B0895CF92DF92EF92FF92F0
:1007B0000F931F93CF93DF937C01CB018A0120918C
:1007C000C501222389F0EB016B01C40ED51ECC15A7
:1007D000DD0569F06991D701ED91FC910190F081FF
:1007E000E02DC7010995F3CF642F0E945D02C80177
:1007F000DF91CF911F910F91FF90EF90DF90CF90FD
:100800000895CF93DF931F92CDB7DEB76983209110
:10081000C5012223F9F02091E801203258F021E0AF
:1008200030E0FC013383228390E080E00F90DF9181
:10083000CF9108958091C601E82FF0E0E953FE4F73
:10084000998190838F5F8093C6018093E80181E056
:1008500090E0ECCF61E0CE0101960E945D02F7CFFF
:10086000CF93C82F8091F70191E09093C5018093B9
:10087000E7011092C6011092E80160E089EE91E074
:100880000E9401046C2F89EE91E00E940104CF9137
:100890000C94C302CF92DF92EF92FF920F931F93BB
:1008A000CF93DF9307E012E0C0EBDD24D3948C2FCD
:1008B0000E94300480E00E94300480E10E943004F5
:1008C0007801D0E0F701C1907F018091F701D092CB
:1008D000C5018093E7011092C6011092E80160E41F
:1008E00089EE91E00E9401046C2D89EE91E00E9456
:1008F00001040E94C302DF5FD03821F7CF5F0058A8
:100900001F4FC83BA1F6DF91CF911F910F91FF9030
:10091000EF90DF90CF90089590E080E0089580916F
:100920001006882319F08EEA0E943004E7E0F2E016
:1009300080E094E0DF019C011D9221503040E1F7FE
:100940000E944A048FEA0C94300485ED8093BC0029
:100950008091C1019091C201A091C301B091C401E5
:100960000796A11DB11D23E0B695A795979587958C
:100970002A95D1F72091BC0024FD03C01092BF013D
:1009800008954091C1015091C2016091C3017091DD
:10099000C401452B462B472B69F30097A105B105F0
:1009A00041F02AE22A95F1F700C00197A109B109A7
:1009B000E1CF8091C0010C94A2021F920F920FB65A
:1009C0000F9211242F933F938F939F93AF93BF93D5
:1009D0008091910190919201A0919301B091940125
:1009E0003091900123E0230F2D3758F50196A11D7A
:1009F000B11D209390018093910190939201A09357
:100A00009301B09394018091950190919601A091EA
:100A10009701B09198010196A11DB11D8093950198
:100A200090939601A0939701B0939801BF91AF91D5
:100A30009F918F913F912F910F900FBE0F901F901C
:100A4000189526E8230F0296A11DB11DD2CF1F9243
:100A50000F920FB60F9211242F933F934F935F93F2
:100A60006F937F938F939F93AF93BF93EF93FF9376
:100A70008091B900887F803609F44AC0F0F5883249
:100A800009F4A7C018F5803109F49BC0B8F4882395
:100A900009F4F9C0883009F494C0FF91EF91BF9137
:100AA000AF919F918F917F916F915F914F913F9106
:100AB0002F910F900FBE0F901F901895883109F459
:100AC00088C0803251F78093BD0114C0803409F48E
:100AD0009DC040F48033B9F38833F9F68093BD01AB
:100AE00085ECB0C0803509F485C0883509F496C01E
:100AF000883499F60E94A504D0CF883909F48CC0B7
:100B000038F5883729F050F4883611F0803729F607
:100B100083E08093BF011092890157C0883809F49F
:100B20007BC0803919F0803809F0B7CF80918901F6
:100B3000803208F071C0E091890181E08E0F8093CE
:100B400089018091BB00F0E0E759FE4F80833DC0F2
:100B5000803B39F0E0F4803A09F479C0883A09F032
:100B60009CCF84E08093BF011092680110926701CE
:100B7000E0918C01F0918D010995809167018111BF
:100B80000FC081E0809367011092470109C0803C4B
:100B900009F4A6CF883C09F4A3CF883B09F07DCFA8
:100BA000E091680181E08E0F80936801F0E0E95BDD
:100BB000FE4F80818093BB00909168018091670116
:100BC00029C080919A018093BB0085EC8093BC0082
:100BD00064CF9091BC018091BB01981758F5E091CA
:100BE000BC0181E08E0F8093BC01F0E0E556FE4F22
:100BF0008081E9CFE091BC0181E08E0F8093BC0140
:100C00008091BB00F0E0E556FE4F80839091BC01DF
:100C10008091BB019817C8F285E8D8CFE091BC015C
:100C200081E08E0F8093BC018091BB00F0E0E5561F
:100C3000FE4F80838091BE0181115CCF81E0809363
:100C4000990184EA8093BC001092BF0126CF85EC05
:100C50008093BC001092BF0180918901803230F4F2
:100C6000E0918901F0E0E759FE4F1082609189011F
:100C700070E0E0918A01F0918B0189E691E009959D
:100C8000109289010ACF1092BD0134CF1092EC016D
:100C90001092EB0188EE93E0A0E0B0E08093ED01CC
:100CA0009093EE01A093EF01B093F00186E191E003
:100CB0009093EA018093E9011092F5011092F601F8
:100CC0001092F7011092F8011092F90185E08093DB
:100CD000FA0182E08093FB011092FC011092FD0169
:100CE0001092FF011092FE01109201021092000278
:100CF000109203021092020261E070E090E080E046
:100D00000E94580B0097E9F09093FF018093FE0139
:100D1000109201021092000220910202309103020F
:100D2000232B11F4FC011082109203021092020294
:100D300064E271E08091FE019091FF010E941E0C1F
:100D400014C08091FE019091FF01009711F00E9464
:100D5000CF0A1092FF011092FE011092030210922E
:100D60000202109201021092000210920B061092E1
:100D70000C0610920F061092100681E08093110667
:100D800080E88093F60180E48093F5018CE3809302
:100D9000F7010895CF93DF93CDB7DEB76D970FB608
:100DA000F894DEBF0FBECDBF789484B5826084BD59
:100DB00084B5816084BD85B5826085BD85B581605F
:100DC00085BD80916E00816080936E0010928100DD
:100DD0008091810082608093810080918100816098
:100DE0008093810080918000816080938000809159
:100DF000B10084608093B1008091B00081608093E5
:100E0000B00080917A00846080937A0080917A00AB
:100E1000826080937A0080917A00816080937A006A
:100E200080917A00806880937A001092C1008DE0F2
:100E30000E94780187E00E94780160E087E00E94CC
:100E4000B50186E00E94780161E086E00E94B5016C
:100E50000E94260260E086E00E94B5010E94260200
:100E600061E086E00E94B5010E94260210928F0187
:100E700010928E011092C6011092E8010E94840225
:100E80008BE592E090938D0180938C018CE592E04C
:100E900090938B0180938A011092B800FE013796DF
:100EA00087E0DF011D928A95E9F78EEA898385ED57
:100EB0008A8380E88B8388EA8C8383ED8E8380E449
:100EC00088878DE8898784E28A8780E28B8791EA28
:100ED0009D8798EC9E879AED9F8792E1988B91E889
:100EE000998B9FEF9A8B99ED9B8B92E29C8B9BED5C
:100EF0009D8B8E8B84EA8F8B86EA888F8FEA898F11
:100F00008091F50181508D838E010F5F1F4F7E010F
:100F1000BAE1EB0EF11CF80181918F010E943004BF
:100F2000E016F106C1F781E080930F0688E690E0B5
:100F300090930E0680930D0685E08093FA010E943F
:100F40008F04E7E0F2E080E094E0DF019C011D9275
:100F500021503040E1F70E948F0480E0282E80E08D
:100F6000382EA7E0B2E0E0E0F4E01D923197E9F717
:100F700008EE13E0409008015090090160900A01CA
:100F800070900B018090040190900501A0900601E3
:100F9000B0900701C0900001D0900101E0900201E3
:100FA000F0900301C501B4019058A70196010E9479
:100FB0008A092AE037ED43EA5CE30E949508A30121
:100FC00092010E948B096A8F7B8F8C8F9D8F60931B
:100FD00008017093090180930A0190930B012DEC95
:100FE0003CEC4CE45EE3C501B4010E949508A3010A
:100FF00092010E948B092AE037ED43EA5CE30E94EC
:101000009508A50194010E948B094B015C01809217
:10101000040190920501A0920601B092070120E020
:1010200030E040E651E4C301B2010E948A09A70101
:1010300096010E9495082DEC3CEC4CE45EE30E9486
:101040008B092AE037ED43EA5CE30E949508A7018B
:1010500096010E948B096B017C01C0920001D09225
:101060000101E0920201F092030120E030E040E053
:1010700052E46A8D7B8D8C8D9D8D0E948B090E9420
:10108000F7092B0161E0F0E24F16510409F060E02E
:101090008DE00E94B5018091F601841588F020E072
:1010A00030E040E252E4C501B4010E948B090E9485
:1010B000F7098091F501861718F0842D0E94970199
:1010C00020E4420E8091F6018415C8F02DEC3CEC32
:1010D0004CEC5EE3C701B6010E9495089B01AC0190
:1010E00060E070E080E892E40E948A090E94F709BB
:1010F0008091F501861718F0842D0E949701015008
:10110000110909F037CF0E944A042114310409F46F
:1011100028CF0E94000025CF8091FE019091FF0111
:10112000009711F00C94CF0A08950E94A8080C941F
:1011300019090E940B0938F00E94120920F095232A
:1011400011F00C9402090C94080911240C944D0917
:101150000E942A0970F3959FC1F3950F50E0551F27
:10116000629FF001729FBB27F00DB11D639FAA27FC
:10117000F00DB11DAA1F649F6627B00DA11D661F4B
:10118000829F2227B00DA11D621F739FB00DA11D6C
:10119000621F839FA00D611D221F749F3327A00D26
:1011A000611D231F849F600D211D822F762F6A2FC2
:1011B00011249F5750409AF0F1F088234AF0EE0F27
:1011C000FF1FBB1F661F771F881F91505040A9F754
:1011D0009E3F510580F00C9402090C944D095F3F2D
:1011E000E4F3983ED4F3869577956795B795F79590
:1011F000E7959F5FC1F7FE2B880F911D9695879508
:1012000097F9089597F99F6780E870E060E0089586
:101210009FEF80EC089500240A941616170618060E
:101220000906089500240A941216130614060506EA
:101230000895092E0394000C11F4882352F0BB0F7B
:1012400040F4BF2B11F460FF04C06F5F7F4F8F4FDE
:101250009F4F089557FD9058440F551F59F05F3F19
:1012600071F04795880F97FB991F61F09F3F79F0C8
:1012700087950895121613061406551FF2CF46954A
:10128000F1DF08C0161617061806991FF1CF8695CC
:101290007105610508940895E894BB2766277727B0
:1012A000CB0197F908952F923F924F925F926F92E0
:1012B0007F928F929F92AF92BF92CF92DF92EF92E6
:1012C000FF920F931F93CF93DF93CDB7DEB7CA1B67
:1012D000DB0B0FB6F894DEBF0FBECDBF09942A8892
:1012E000398848885F846E847D848C849B84AA843A
:1012F000B984C884DF80EE80FD800C811B81AA81C7
:10130000B981CE0FD11D0FB6F894DEBF0FBECDBF91
:10131000ED0108955058BB27AA270E94A2090C94FA
:1013200019090E940B0938F00E94120920F039F4C3
:101330009F3F19F426F40C9408090EF4E095E7FB9E
:101340000C940209E92F0E942A0958F3BA17620780
:1013500073078407950720F079F4A6F50C944C09DF
:101360000EF4E0950B2EBA2FA02D0B01B9019001C0
:101370000C01CA01A0011124FF27591B99F0593F04
:1013800050F4503E68F11A16F040A22F232F342F4C
:101390004427585FF3CF469537952795A795F0409A
:1013A0005395C9F77EF41F16BA0B620B730B840BAF
:1013B000BAF09150A1F0FF0FBB1F661F771F881F67
:1013C000C2F70EC0BA0F621F731F841F48F48795BF
:1013D00077956795B795F7959E3F08F0B0CF9395B1
:1013E000880F08F09927EE0F9795879508950E942A
:1013F000FE096894B1110C944D0908950E943209B8
:1014000088F09F5798F0B92F9927B751B0F0E1F0C5
:10141000660F771F881F991F1AF0BA95C9F714C075
:10142000B13091F00E944C09B1E008950C944C0940
:10143000672F782F8827B85F39F0B93FCCF38695AE
:1014400077956795B395D9F73EF49095809570950B
:1014500061957F4F8F4F9F4F0895EE0FFF1F0590AF
:10146000F491E02D09940F931F93CF93DF93823073
:10147000910510F482E090E0E0911406F0911506D9
:1014800030E020E0B0E0A0E0309799F4211531057C
:1014900009F44AC0281B390B24303105D8F58A815C
:1014A0009B816115710589F1FB0193838283FE01A4
:1014B00011C0408151810281138148175907E0F022
:1014C0004817590799F4109761F012960C931297E8
:1014D00013961C933296CF01DF91CF911F910F91FC
:1014E00008950093140610931506F4CF21153105C5
:1014F00051F04217530738F0A901DB019A01BD01F1
:10150000DF01F801C1CFEF01F9CF90931506809369
:101510001406CDCFFE01E20FF31F81939193225069
:10152000310939832883D7CF2091120630911306D1
:10153000232B41F420910E0130910F0130931306BB
:101540002093120620910C0130910D0121153105D7
:1015500041F42DB73EB74091100150911101241B69
:10156000350BE0911206F0911306E217F307A0F491
:101570002E1B3F0B2817390778F0AC014E5F5F4FE9
:101580002417350748F04E0F5F1F50931306409302
:101590001206819391939FCFF0E0E0E09CCFCF9330
:1015A000DF930097E9F0FC01329713821282A09139
:1015B0001406B0911506ED0130E020E01097A1F47B
:1015C00020813181820F931F2091120630911306E2
:1015D0002817390709F061C0F0931306E09312064B
:1015E000DF91CF910895EA01CE17DF07E8F54A8130
:1015F0005B819E0141155105B1F7E901FB83EA8347
:1016000049915991C40FD51FEC17FD0761F48081F2
:1016100091810296840F951FE901998388838281C5
:1016200093819B838A83F0E0E0E012968D919C91F8
:1016300013970097B9F52D913C911197CD01029622
:10164000820F931F20911206309113062817390735
:1016500039F6309751F51092150610921406B09392
:101660001306A0931206BCCFD383C283408151815D
:10167000840F951FC817D90761F44E5F5F4F8881AB
:101680009981480F591F518340838A819B8193839D
:1016900082832115310509F0B0CFF0931506E09350
:1016A00014069ECFFD01DC01C0CF13821282D7CF7A
:1016B000B0E0A0E0EEE5FBE00C9455098C0100974A
:1016C00051F4CB010E94330A8C01C801CDB7DEB7BB
:1016D000E0E10C947109FC01E60FF71F9C01225018
:1016E0003109E217F30708F49DC0D901CD91DC91CF
:1016F0001197C617D70798F0C530D10530F3CE0142
:1017000004978617970708F3C61BD70B2297C19338
:10171000D1936D937C93CF010E94CF0AD6CF5B010A
:10172000AC1ABD0A4C018C0E9D1EA0911406B091FE
:101730001506512C412CF12CE12C109731F580919C
:101740001206909113068815990509F05CC046169B
:10175000570608F058C080910C0190910D01009738
:1017600041F48DB79EB74091100150911101841B37
:10177000950BE817F90708F055C0F0931306E093AE
:101780001206F90171836083A0CF8D919C9111970E
:1017900012966C90129713967C901397A815B90522
:1017A00059F56C0142E0C40ED11CCA14DB0420F1CF
:1017B000AC014A195B09DA011296159780F0628232
:1017C000738251834083D9016D937C93E114F104BA
:1017D00071F0D7011396FC93EE93129776CF229671
:1017E0008C0F9D1FF90191838083F301EFCFF0935C
:1017F0001506E093140669CF4816590608F42C0123
:101800007D01D3019ACFCB010E94330A7C0100975E
:1018100049F0AE01B8010E94150CC8010E94CF0A20
:10182000870153CF10E000E050CFFB01DC0102C084
:1018300001900D9241505040D8F70895FB01DC0112
:1018400001900D920020E1F7089511E0CDE4D1E080
:1018500004C0FE010E942D0A2196CE34D107C9F79B
:04186000F894FFCF2A
:10186400CDCCCC3DCDCCCC3DCDCCCC3D0000160672
:101874008000000000000104D4038C04AA03CD03FB
:06188400BA03AB030000F3
:00000001FF
